{
  "_format": "hh-sol-artifact-1",
  "contractName": "PricePredicate",
  "sourceName": "contracts/Hybrid_Strategy.sol",
  "abi": [
    {
      "inputs": [
        {
          "internalType": "address",
          "name": "oracleAddress",
          "type": "address"
        },
        {
          "internalType": "uint256",
          "name": "maxPrice",
          "type": "uint256"
        }
      ],
      "name": "checkPrice",
      "outputs": [
        {
          "internalType": "bool",
          "name": "",
          "type": "bool"
        }
      ],
      "stateMutability": "view",
      "type": "function"
    }
  ],
  "bytecode": "0x608060405234801561001057600080fd5b506101f9806100206000396000f3fe608060405234801561001057600080fd5b506004361061002b5760003560e01c806356fcd3c414610030575b600080fd5b61004361003e36600461011c565b610057565b604051901515815260200160405180910390f35b6000808390506000816001600160a01b031663feaf968c6040518163ffffffff1660e01b815260040160a060405180830381865afa15801561009d573d6000803e3d6000fd5b505050506040513d601f19601f820116820180604052508101906100c19190610173565b505050915050600081136101125760405162461bcd60e51b8152602060048201526014602482015273496e76616c6964206f7261636c6520707269636560601b604482015260640160405180910390fd5b9092119392505050565b6000806040838503121561012f57600080fd5b82356001600160a01b038116811461014657600080fd5b946020939093013593505050565b805169ffffffffffffffffffff8116811461016e57600080fd5b919050565b600080600080600060a0868803121561018b57600080fd5b61019486610154565b94506020860151935060408601519250606086015191506101b760808701610154565b9050929550929590935056fea26469706673582212207becca4edef996af8628c957464ffe1b1c2d5a67fa07b19237c2ee2dc8fe0cd764736f6c63430008140033",
  "linkReferences": {},
  "deployedLinkReferences": {}
}