{
  "_format": "hh-sol-artifact-1",
  "contractName": "TimeHook",
  "sourceName": "contracts/Hybrid_Strategy.sol",
  "abi": [
    {
      "inputs": [],
      "stateMutability": "nonpayable",
      "type": "constructor"
    },
    {
      "inputs": [
        {
          "internalType": "address",
          "name": "owner",
          "type": "address"
        }
      ],
      "name": "OwnableInvalidOwner",
      "type": "error"
    },
    {
      "inputs": [
        {
          "internalType": "address",
          "name": "account",
          "type": "address"
        }
      ],
      "name": "OwnableUnauthorizedAccount",
      "type": "error"
    },
    {
      "anonymous": false,
      "inputs": [
        {
          "indexed": true,
          "internalType": "bytes32",
          "name": "seriesId",
          "type": "bytes32"
        },
        {
          "indexed": true,
          "internalType": "address",
          "name": "user",
          "type": "address"
        }
      ],
      "name": "OrderSeriesRegistered",
      "type": "event"
    },
    {
      "anonymous": false,
      "inputs": [
        {
          "indexed": true,
          "internalType": "address",
          "name": "previousOwner",
          "type": "address"
        },
        {
          "indexed": true,
          "internalType": "address",
          "name": "newOwner",
          "type": "address"
        }
      ],
      "name": "OwnershipTransferred",
      "type": "event"
    },
    {
      "anonymous": false,
      "inputs": [
        {
          "indexed": true,
          "internalType": "bytes32",
          "name": "seriesId",
          "type": "bytes32"
        },
        {
          "indexed": false,
          "internalType": "uint256",
          "name": "newTimestamp",
          "type": "uint256"
        }
      ],
      "name": "TimestampUpdated",
      "type": "event"
    },
    {
      "inputs": [],
      "name": "TIME_INTERVAL",
      "outputs": [
        {
          "internalType": "uint256",
          "name": "",
          "type": "uint256"
        }
      ],
      "stateMutability": "view",
      "type": "function"
    },
    {
      "inputs": [
        {
          "internalType": "bytes32",
          "name": "seriesId",
          "type": "bytes32"
        }
      ],
      "name": "checkTime",
      "outputs": [
        {
          "internalType": "bool",
          "name": "",
          "type": "bool"
        }
      ],
      "stateMutability": "view",
      "type": "function"
    },
    {
      "inputs": [
        {
          "internalType": "bytes32",
          "name": "",
          "type": "bytes32"
        }
      ],
      "name": "lastExecutionTime",
      "outputs": [
        {
          "internalType": "uint256",
          "name": "",
          "type": "uint256"
        }
      ],
      "stateMutability": "view",
      "type": "function"
    },
    {
      "inputs": [],
      "name": "owner",
      "outputs": [
        {
          "internalType": "address",
          "name": "",
          "type": "address"
        }
      ],
      "stateMutability": "view",
      "type": "function"
    },
    {
      "inputs": [
        {
          "internalType": "bytes32",
          "name": "seriesId",
          "type": "bytes32"
        }
      ],
      "name": "registerOrderSeries",
      "outputs": [],
      "stateMutability": "nonpayable",
      "type": "function"
    },
    {
      "inputs": [],
      "name": "renounceOwnership",
      "outputs": [],
      "stateMutability": "nonpayable",
      "type": "function"
    },
    {
      "inputs": [
        {
          "internalType": "address",
          "name": "newOwner",
          "type": "address"
        }
      ],
      "name": "transferOwnership",
      "outputs": [],
      "stateMutability": "nonpayable",
      "type": "function"
    },
    {
      "inputs": [
        {
          "internalType": "bytes32",
          "name": "seriesId",
          "type": "bytes32"
        }
      ],
      "name": "updateTimestamp",
      "outputs": [],
      "stateMutability": "nonpayable",
      "type": "function"
    }
  ],
  "bytecode": "0x608060405234801561001057600080fd5b50338061003757604051631e4fbdf760e01b81526000600482015260240160405180910390fd5b61004081610046565b50610096565b600080546001600160a01b038381166001600160a01b0319831681178455604051919092169283917f8be0079c531659141344cd1fd0a4f28419497f9722a3daafe3b4186f6b6457e09190a35050565b6103e7806100a56000396000f3fe608060405234801561001057600080fd5b50600436106100885760003560e01c8063bae8a4f61161005b578063bae8a4f6146100ed578063e9bb37a014610100578063f2fde38b14610118578063f74eb65f1461012b57600080fd5b806338ec66231461008d578063715018a6146100b5578063816a7a9d146100bf5780638da5cb5b146100d2575b600080fd5b6100a061009b366004610341565b61014b565b60405190151581526020015b60405180910390f35b6100bd610181565b005b6100bd6100cd366004610341565b610195565b6000546040516001600160a01b0390911681526020016100ac565b6100bd6100fb366004610341565b6101e7565b61010a6201518081565b6040519081526020016100ac565b6100bd61012636600461035a565b610286565b61010a610139366004610341565b60016020526000908152604090205481565b60008181526001602052604081205480820361016a5750600192915050565b610177620151808261038a565b4210159392505050565b6101896102c4565b61019360006102f1565b565b600081815260016020526040908190204290819055905182917fd665b462dc775d0756dda1df6181c1f9ae25892db2afd6d5cebede12d305b593916101dc91815260200190565b60405180910390a250565b600081815260016020526040902054156102485760405162461bcd60e51b815260206004820152601960248201527f53657269657320616c726561647920726567697374657265640000000000000060448201526064015b60405180910390fd5b60008181526001602052604080822082905551339183917f4229ee54843e4a209c9aeba4891493c612f98f4be471f61f1b918d2c49d84e2a9190a350565b61028e6102c4565b6001600160a01b0381166102b857604051631e4fbdf760e01b81526000600482015260240161023f565b6102c1816102f1565b50565b6000546001600160a01b031633146101935760405163118cdaa760e01b815233600482015260240161023f565b600080546001600160a01b038381166001600160a01b0319831681178455604051919092169283917f8be0079c531659141344cd1fd0a4f28419497f9722a3daafe3b4186f6b6457e09190a35050565b60006020828403121561035357600080fd5b5035919050565b60006020828403121561036c57600080fd5b81356001600160a01b038116811461038357600080fd5b9392505050565b808201808211156103ab57634e487b7160e01b600052601160045260246000fd5b9291505056fea2646970667358221220118494624e7112432c85faa1705a7e9d51f8bb83c2561fd5af304ceee90af4b664736f6c63430008140033",
  "linkReferences": {},
  "deployedLinkReferences": {}
}